{
  "contractName": "Payable",
  "abi": [
    {
      "anonymous": false,
      "inputs": [
        {
          "indexed": false,
          "internalType": "uint256",
          "name": "value",
          "type": "uint256"
        }
      ],
      "name": "Received",
      "type": "event"
    },
    {
      "constant": false,
      "inputs": [],
      "name": "payme",
      "outputs": [],
      "payable": true,
      "stateMutability": "payable",
      "type": "function"
    },
    {
      "constant": true,
      "inputs": [],
      "name": "getamount",
      "outputs": [
        {
          "internalType": "uint256",
          "name": "",
          "type": "uint256"
        }
      ],
      "payable": false,
      "stateMutability": "view",
      "type": "function"
    },
    {
      "constant": false,
      "inputs": [],
      "name": "get",
      "outputs": [],
      "payable": true,
      "stateMutability": "payable",
      "type": "function"
    }
  ],
  "bytecode": "0x60806040526000805534801561001457600080fd5b5060ef806100236000396000f3fe60806040526004361060305760003560e01c8063534117e11460355780636d4ce63c14605d578063ba6361fb146065575b600080fd5b348015604057600080fd5b506047606d565b6040518082815260200191505060405180910390f35b60636076565b005b606b60b1565b005b60008054905090565b7fa8142743f8f70a4c26f3691cf4ed59718381fb2f18070ec52be1f1022d8555576000546040518082815260200191505060405180910390a1565b3460008190555056fea265627a7a72315820b77bee6f81e9c9ee2ab44d22a80f5574889058f3439b46081ee8be59f034d9ae64736f6c63430005100032",
  "source": "pragma solidity >=0.4.21 <0.7.0;\n\ncontract  Payable {\n    uint amount =0;\n    event Received(uint value);\n\n    function payme() payable public{\n        amount = msg.value;\n    }\n    function getamount() public view returns (uint){\n        return amount;\n    }\n    function get() external payable {\n        emit Received(amount);\n    }\n}\n\n",
  "sourcePath": "/Users/fota/Documents/dapp-react/contracts/Payable.sol",
  "compiler": {
    "name": "solc",
    "version": "0.5.16+commit.9c3226ce.Emscripten.clang"
  },
  "schemaVersion": "3.3.1",
  "updatedAt": "2022-04-08T05:42:30.003Z",
  "networkType": "ethereum",
  "devdoc": {
    "methods": {}
  },
  "userdoc": {
    "methods": {}
  }
}